:100000000C943A020C9457020C9457020C94570229
:100010000C9457020C9457020C9457020C945702FC
:100020000C9457020C9457020C944E290C94212ADC
:100030000C9417220C9457020C9457020C945702FC
:100040000C9457020C9457020C9457020C945702CC
:100050000C9457020C94B4220C9457020C9457023F
:100060000C9457020C9457020C9457020C945702AC
:100070000C9457020C9457020C9457020C9457029C
:100080000C9457020C9457020C9457020C9457028C
:100090000C9457020C9457020C9457020C9457027C
:1000A0000C9457020C9457020C94570229001E001E
:1000B0001F002000210022002A0027002600250022
:1000C000240023002B0014001A000800150017005C
:1000D0003100130012000C0018001C00E1000400A5
:1000E0001600070009000A00280033000F000E0068
:1000F0000D000B00E0001D001B00060019000500AC
:10010000340038023700360010001100000022527F
:10011000E30035002C00215200002E005400550051
:1001200057002D000000000000000000000000004B
:10013000000030002F000000000000000000000060
:10014000520000000000000000000000000000005D
:1001500000000000E100500051004F0000000000CE
:10016000000000000000000000000000E0000000AF
:10017000000000000000000000000000000000007F
:10018000000000000000000000000000000000006F
:10019000000000004E004B00D100D2003A003B00AE
:1001A0003C003D003E003F0045004400430042004B
:1001B000410040000000000052000000000000006C
:1001C000000000000000000000000000E1005000FE
:1001D00051004F000000000000000000000000007F
:1001E00000000000E000000000000000000000002F
:1001F00000000000000000000000000000000000FF
:100200000000E2000000000000000000AA00A900B9
:10021000D100D20000000000000000002A2B2800BE
:1002200000000000000000000000000000000029A5
:10023000000000002C1E3420212224342627252EE5
:10024000362D3738271E1F2021222324252633331D
:10025000362E37381F0405060708090A0B0C0D0E49
:100260000F101112131415161718191A1B1C1D2F15
:100270003130232D350405060708090A0B0C0D0E35
:100280000F101112131415161718191A1B1C1D2FF5
:100290003130354C0000000000000000000000007C
:1002A000000000000000000000000000000000004E
:1002B00000000000000000007E0F00D4FFFFFFC719
:1002C000000000781A035400680075006D00620099
:1002D00073005500700021002000760035000000FA
:1002E000360341006C006500780061006E00640018
:1002F0006500720020002800530061007300680050
:100300006100290020004B00610072006D00610057
:100310006E006F00760000000403090409025B0010
:10032000030100A0FA0904000001030101000921F2
:10033000110100012244000705810308000109049E
:100340000100020300000009211101000122220026
:1003500007058203200001070503032000010904AB
:1003600002000103000000092111010001228400A4
:10037000070584032000011201000200000008614B
:100380005350000001010200010660FF0961A10154
:100390000962150026FF0095207508810209631582
:1003A0000026FF00952075089102C005010902A1F1
:1003B0000185020901A10005091901290815002577
:1003C0000195087501810205010930093115812562
:1003D0007F95027508810609381581257F9501757D
:1003E000088106050C0A38021581257F95017508DC
:1003F0008106C0C005010906A1018506050719E0AF
:1004000029E71500250195087501810205071900E6
:1004100029EF1500250195F07501810205081901E4
:100420002905950575019102950175039101C00596
:10043000010906A101050719E029E7150025019525
:1004400008750181029501750881010507190029C8
:10045000FF150026FF0095067508810005081901A3
:100460002905150025019505750191029501750372
:100470009101C00011241FBECFEFDAE0DEBFCDBF77
:1004800011E0A0E0B1E0E0ECFAE502C005900D92C9
:10049000A035B107D9F722E0A0E5B1E001C01D9277
:1004A000A738B207E1F70E9421110C94052D0C9496
:1004B00000008330B8F46A30A8F4463098F4E42F92
:1004C000F0E096E0699FE00DF11D11249CE3899F07
:1004D000E00DF11D1124EE0FFF1FE455FF4F859134
:1004E0009491089581E090E0089581E008950E943C
:1004F0007502089581E0089581E008950E947C02CC
:10050000089508950E9481020895A6E0B0E0EBE806
:10051000F2E00C94752C49835A839E8330915701E5
:1005200089819A8131111AC03E81311599F02115C6
:1005300089F00E94E207182F682F89819A810E9412
:10054000BE0769817A81812F0E94E00E2696E3E042
:100550000C94912C0E94D007182FF3CF0E94E20731
:1005600069817A81F1CFFC01262F4081518162811E
:100570007381848195810E9485020895CF93DF93D2
:10058000D82FC92F61E00E94B3026D2F7C2F0E94EB
:100590007702DF91CF910895CF93DF93D82FC92FA2
:1005A00060E00E94B3026D2F7C2F0E948202DF91D7
:1005B000CF91089581E008950E94DA020895CF93C3
:1005C000C82F0E94AC068C2F0E94DC022FEF84E320
:1005D0009CE0215080409040E1F700C00000CF91A6
:1005E000089581E00E94DF020E94D822089580E0F1
:1005F0000E94DF020E94E92208950F931F93CF9378
:10060000DF938C0161E00E94B302EC01B8010E940B
:100610008D1F811509F442C0B801CE010E947E02EF
:100620008115E1F1B801CE010E94A71E8115B1F13B
:10063000B801CE010E94BE19811581F1B801CE0129
:100640000E949319811551F1B801CE010E94E91E53
:10065000811521F1F8018581811581F0CA35FCE70A
:10066000DF0739F178F4C130ECE7DE07F9F0C33089
:10067000FCE7DF07C9F0C115DC4771F0C8010E9433
:100680007A020DC0CB35ECE7DE07B1F0CC35DC47A4
:10069000A9F70E941E0CF2CF0E94F10280E0DF91C8
:1006A000CF911F910F9108950E942F0C0E94F70285
:1006B000F5CF0E94270CE2CF0E942B0CDFCF0E94C7
:1006C000F4210E9488030E94D11108950E948C0396
:1006D0000E94F9210895089581E008950895CF9327
:1006E000DF93D82F0E946C03C82F811519F08D2F2E
:1006F0000E946E038C2FDF91CF9108950895CF93C0
:10070000C82F0E946B038C2F0E946F03CF91089516
:1007100080E00E947F0308950E947B200E947F0357
:100720000895CF930E947B20C82F809152018C178F
:1007300079F0C09352010E94832260935301709319
:10074000540180935501909356018C2F0E947F0392
:10075000CF910895ADE0B0E0E0EBF3E00C94762C9F
:10076000488759876A877B878C879D8791110E946C
:100770002A0B1F8286E0FE013896DE011196019059
:100780000D928A95E1F78D8181110DC029813A8101
:100790004B815C816D817E818F810E94740A2D96D0
:1007A000E2E00C94922CCE0101960E94BE028111CF
:1007B000EDCFF5CFFC018481813021F480819181DE
:1007C0000E940B080895CF93DF93C82FD62F611591
:1007D00081F00E94241B8C2F90E09C01215D310947
:1007E0002830310548F46D2F0E943F12DF91CF91E0
:1007F00008950E94801BEFCF0E94F81BF7CFCF9384
:10080000C82F811599F08CEF8C0F813A88F48C2FCA
:100810000E94D320811529F08C2F0E9478210E94FC
:10082000C00B8C2F0E9461210E94C00BCF910895B4
:1008300080E28C0F883048F4C77081E001C0880FD7
:10084000CA95EAF70E940B0BEFCF83E38C0F83313D
:1008500068F761E08C2F0E94E303E8CF8115F1F087
:100860009CEF980F913A28F40E9478210E94C00BC7
:10087000089590E2980F983050F4877091E001C08D
:10088000990F8A95EAF7892F0E94110BEFCF93E316
:10089000980F933118F460E00E94E30308950F93DA
:1008A0001F93CF93C82F8B010E94FF0301151105E1
:1008B00039F48C2F0E942E04CF911F910F9108952F
:1008C0008FE99FE00197F1F700C000000150110986
:1008D000EDCF60E570E0893311F060E070E00E94D8
:1008E0004F040895811521F00E940B0B0E94C00B4C
:1008F0000895811521F00E94110B0E94C00B0895EC
:10090000A0E0B0E0E6E8F4E00C94702C6C01D62F87
:10091000C72FFC010581F680F2948FE0F8220E9437
:10092000000BE82E8115F9F0E02E0115E1F08C2F77
:10093000807F803461F080E28D0F8830A0F18C2FB1
:10094000807E803221F4D23070F1F11461F1809117
:10095000600282FF28C082E00E94F10B0E94000B1F
:1009600091E0E82EE9268C2F82958F70883009F46B
:10097000CFC0B0F58430C8F41C2F1F70823008F44B
:1009800040C0C07FC03211F01295107FD11509F41C
:1009900067C0D13009F497C0011509F4A3C0F11460
:1009A00009F47AC041C0E12CDECF853009F4ABC038
:1009B000E11489F00E94FC0A80FD0DC0F601158249
:1009C0000E94F60A0E942D07C6010E947B060E9423
:1009D000F60A0E943907CDB7DEB7E8E00C948C2CFC
:1009E000893009F402C18A5F8F70823008F7D23FE4
:1009F00009F00CC18C2F8F71011105C10E942D07C8
:100A0000B1C0C03110F01295107F011599F0111589
:100A100059F080E28D0F883010F0D11107C0812F7E
:100A20000E940B0B0E94C00B8D2F28C0812F0E94AB
:100A30001C0BF8CF8D2F0E942E04111509F4B8CF8E
:100A400080E28D0F883010F0D11104C0812F0E94F8
:100A5000110B03C0812F0E94220B0E94C00BA8CF54
:100A60008091600282FD14C0011559F0111529F022
:100A7000812F0E940B0B0E94C00B80E00E94FF039D
:100A800097CF80E00E942E04111509F491CFDECF9C
:100A9000011569F0F11004C0812F0E94720488CF03
:100AA000F1E0FF1285CF812F0E94420B81CFF11020
:100AB0007FCF812F0E947904812F0E944E0B812FBE
:100AC0000E94310B75CF011529F026E0F21608F0CF
:100AD0006FCFE2CF85E0F81608F06ACF812F0E9431
:100AE000790466CFF114D1F3D93349F49FEFE7EEDF
:100AF000F3E09150E040F040E1F700C000008D2F9E
:100B00000E942E0455CF602F8D2F0E94E30350CFFB
:100B10008C2F8370811134C0011124C04D2F429558
:100B200046954770440F440F8D2F8F70042E01C0DF
:100B3000880F0A94EAF72D2F2071D4FF07C02FE009
:100B400030E001C0220F4A95EAF72095C695C69578
:100B5000C370822BC23071F0C33079F0C13039F0EC
:100B60000E9409070E947B200E947F0321CF0E94E0
:100B70000307F8CF0E940F07F5CF0E940007F2CFBE
:100B8000011539F1C0FFEECF4D2F429546954770C4
:100B9000440F440F8D2F8F70042E01C0880F0A94CC
:100BA000EAF72D2F2071D4FF07C02FE030E001C0FD
:100BB000220F4A95EAF72095C695C695C370822BF9
:100BC000C23069F0C33071F0C13031F00E945B0770
:100BD000C9CF823038F2D8CF0E945507C3CF0E94C8
:100BE0006107C0CF0E941B07BDCFCF70011539F040
:100BF0008C2F0E942D078D2F0E947204B3CF8D2F52
:100C00000E9479048C2F0E943907ACCF68F4D03F42
:100C1000C1F0D13F89F0011509F441C0F114E1F1AF
:100C20008D2F0E94FF039ECFD33FC9F0D43F99F789
:100C30008091600282FD1DC08C2F8F71011519F308
:100C4000DDCE011549F025E0F21608F08BCF8C2F90
:100C50008F710E94490786CF86E0F816F6CF0115FE
:100C600029F08C2F8F710E9424077CCF0E942007CF
:100C700079CF011531F063E08C2F8F710E94D20B78
:100C800071CF81E00E94F10B92E0F91608F46ACF6F
:100C900082E00E94F10B66CF8C2F8F71AFCEF114E2
:100CA00079F0D93349F4EFEFF7EE23E0E150F0406B
:100CB0002040E1F700C000008D2F0E942E0452CF8B
:100CC0008C2F8F71A0CF0F931F93CF93DF93EC01E5
:100CD000688179818D810E9418088C010E946707C4
:100CE0000E94FF06B801CE010E948004DF91CF91DF
:100CF0001F910F910895CF93DF93EC018C818115A3
:100D000099F0CE010E94FD02811111C00E94000BDA
:100D1000811551F08D81811539F08091600282FF3B
:100D200003C082E00E94F10BDF91CF910895CE01C4
:100D30000E946306CE010E94CC02F6CF0E942A0BCD
:100D40000E94C00B0E94151C0E94F81B08950E946F
:100D50008F210E949E0608950E94190B0E94A706EB
:100D60000895282F92959F70963099F060F4925FC5
:100D70009F70923030F4203FB1F038F481E0283E8B
:100D800038F080E008959A5FF3CF81E0243FC9F7FF
:100D9000089591E0813F09F090E081E0283E08F05D
:100DA00080E0892B089581E00895FC0184818115FC
:100DB00039F0808191810E940B080E94B10608954C
:100DC00080E00895A6E0B0E0E8EEF6E00C94762C22
:100DD0002696E2E00C94922CA7E0B0E0E2EFF6E079
:100DE0000C94762C2796E2E00C94922C08950E94A5
:100DF000F60608950E94F7068093710108950895FC
:100E00000E94FA06089590917101892B0E94FA06BA
:100E100008959091710189230E94FA060895909196
:100E2000710189270E94FA0608950E94F606089526
:100E30000E94150708950E94180780937001089575
:100E400080E00E941B07089591E001C0990F8A95E8
:100E5000EAF7892F0E941B07089521E030E001C0C6
:100E6000220F8A95EAF780917001822B0E941B075E
:100E7000089521E030E0A90102C0440F551F8A9572
:100E8000E2F7CA0180959091700189230E941B07A7
:100E9000089521E030E001C0220F8A95EAF78091A1
:100EA000700182270E941B07089590917001892B81
:100EB0000E941B0708959091700189230E941B07CF
:100EC00008959091700189270E941B070895089545
:100ED0009B01677091E001C0990F6A95EAF763E0A2
:100EE000369527956A95E1F7B901660F771F260FAA
:100EF000371FFA01E20FF31F40E050E0682F70E067
:100F00008191DF019B01042E02C0369527950A943A
:100F1000E2F7217021952827292328272E934F5F58
:100F20005F4F4330510561F708959C01A82FA770CA
:100F300083E0369527958A95E1F7C901880F991FB7
:100F4000820F931FFB01E80FF91F40E050E080E0A3
:100F5000219130E00A2E02C0369527950A94E2F7D7
:100F600021703327042E01C0220F0A94EAF7822B46
:100F70004F5F5F4F4330510559F70895282F862F53
:100F80009A3068F4263058F4622F70E026E0929F81
:100F9000600D711D112448E551E00E946807089515
:100FA000292F9A3068F4863058F490E068E571E0B3
:100FB00036E0239F800D911D11240E94950708950E
:100FC00080E00895A0E0B0E0E8EEF7E00C94712C2A
:100FD0007C010091700180917101082BC5E0D0E087
:100FE00010E0C8010C2E02C0959587950A94E2F78F
:100FF00080FD09C02197A8F7D12C8D2DCDB7DEB784
:10100000E7E00C948D2CDC2EB7018C2F0E94EC0EA7
:10101000019781F3F2CFCF93DF93D82FC92F0E948E
:10102000E2076D2F7C2F0E94EC0EDF91CF91089587
:101030001F93CF93DF93162FD72F909157019115C0
:1010400041F0862F972F0E940B08DF91CF911F91BF
:101050000895811581F0862F972F0E94E207C82FEF
:10106000682F812F9D2F0E94BE07612F7D2F8C2F0F
:101070000E94EC0EEACF862F972F0E94D007C82F30
:10108000F4CFE1E0F0E0DF0102C0AA0FBB1F6A95D8
:10109000E2F7BD01DF0102C0AA0FBB1F4A95E2F7CC
:1010A0006A2B01C0EE0F2A95EAF7962F9823961324
:1010B00002C08E2B0895E0958E230895242F462F8D
:1010C000682F809170010E9441080E941B070895BB
:1010D0000F931F93CF93E0917201C7E0809173014A
:1010E0008E1304C0CF911F910F9108950E2F10E021
:1010F000CE9FF0011124EC58FE4F208131814281B6
:1011000053816481758186810E94EC06F8013196D5
:10111000E770E4CF2091AC013091AD014091AE0178
:101120005091AF016091B0017091B1018091B20115
:101130000E94EC0608958091B201803178F480918C
:10114000B101811559F0E091720120917301309144
:10115000AD014091AC0157E02E1301C008956E2FF0
:1011600070E05E9FF0011124DF01AC58BE4F149671
:101170008C911497811561F111968C9111978313BD
:1011800027C08C91841324C015968C9115978111DA
:101190001FC012968D919C91A091AE01B091AF01AC
:1011A0008A1B9B0B883C910598F48091B2018F704B
:1011B00080618093B201E658FE4F80818F7080611C
:1011C00080838CEA91E00E947B060E946808089563
:1011D000FB013196E770C0CFE091720190917301ED
:1011E00027E0E91302C080E00895AE2FB0E02E9F03
:1011F000F0011124EC58FE4F3181361306C03081C6
:10120000381303C03581341304C0FD013196E770F3
:10121000E8CF81E008958F929F92AF92BF92DF92C4
:10122000EF92FF920F931F93CF93DF93CDB7DEB76B
:101230002D970FB6F894DEBF0FBECDBF8C0186E0B0
:10124000F801DE01189601900D928A95E1F7F801F8
:10125000F58084819CEA892E91E0992E9091B001CD
:10126000911119C0811509F4B5C0F11409F42FC109
:10127000C8010E94D506811509F429C187E0F8014B
:10128000D40101900D928A95E1F7C4010E94DA031E
:101290000E949B089DC0E080A280B380D090B101E5
:1012A0002091AE013091AF01A501421B530BD11427
:1012B00009F4EAC0483C510508F0B6C0811509F4AC
:1012C00089C09091AD0191808091B201803108F088
:1012D0006BC0991228C09091AC019E1124C0F110EE
:1012E0005DC08F7080618093B2010E948A088CEA91
:1012F00091E00E947B068091B201F8018683F12C77
:101300008F2D2D960FB6F894DEBF0FBECDBFDF91A7
:10131000CF911F910F91FF90EF90DF90BF90AF9012
:101320009F908F900895F11039C040E0692D8E2D67
:101330000E94EC0840E0692D8E2D0E94EC08F82EEA
:101340008111DDCF888599850E940B08292F229570
:101350002F70903450F49F70223080F0911599F0E6
:10136000F8019681903178F4CBCF2A5F2F7022302C
:1013700078F0C8010E947B06FD2CC2CF911519F0B0
:10138000811509F4BDCF805E883008F4B9CFF1CF64
:10139000803F08F4B5CF815F8330F7CF8091B201F1
:1013A00081608093B201ABCF991217C09091AC01CC
:1013B0009E1113C0F11011C08683C8010E947B06E4
:1013C00087E0F801ACEAB1E001900D928A95E1F76F
:1013D0000E948A08FF24F39493CFC8010E94D50687
:1013E000811509F474C0F11409F471C08091B2013F
:1013F000803288F02091AC013091AD013A8329838D
:10140000BC82AB829091B0019D831E828F83CE01FE
:1014100001960E947B0687E0F801ACEAB1E00190FA
:101420000D928A95E1F734CF9091B2019031A0F4FA
:10143000488559856A857B858C859D850E94E20655
:101440008CEA91E00E947B0687E0F40111928A9574
:10145000E9F70E948A0853CF811509F4BBCF209188
:10146000AD0181812813B9CF8091AC018E11B5CF28
:10147000F110B3CF9683C8010E947B0687E0F40188
:1014800011928A95E9F7A6CF483C510520F58115C0
:1014900009F4A0CFF114D9F09091AD018181981396
:1014A0000CC08091AC018E1108C087E0ACEAB1E0BD
:1014B00001900D928A95E1F78DCFC8010E94D50663
:1014C0008111A9CF8091B20181608093B201C801DE
:1014D0000E947B067FCF488559856A857B858C85F0
:1014E0009D850E94E206B0CFAEE0B0E0EAE7FAE008
:1014F0000C94752C288739874A875B876C877D8792
:101500008E87CE0108960E940B096C858115A9F083
:10151000611541F0288539854A855B857D858E85F5
:101520000E94EC0617E0809172019091730189137B
:101530003AC02E96E3E00C94912C87E0FE01389699
:10154000DE01119601900D928A95E1F7611551F334
:10155000A09173018A2F90E00196877099272091BE
:1015600072012817190689F097E09A9FD00111247B
:10157000AC58BE4FFE01319601900D929A95E1F75D
:10158000809373010E946808CDCF0E94AC06109230
:1015900073011092720187E0ECEAF1E0DF011D9225
:1015A0008A95E9F7BFCF189FC00111248C589E4F30
:1015B0000E940B09811509F4BCCFE09172011E9FB6
:1015C000F0011124EC58FE4F20813181428153817A
:1015D0006481758186810E94EC068091720190E0A1
:1015E000019687709927809372019DCF8091DB01CE
:1015F00086958695869508958091DB01877008957C
:101600009091DB01977081E0911101C080E0089515
:1016100080910702089590910702982B90930702FA
:101620000895982F9095809107028923809307024F
:10163000089510920702089590910602982B9093B6
:1016400006020895982F9095809106028923809331
:101650000602089510920602089508950E942D0B27
:1016600008959091DC01292F2823211531F08095D0
:1016700089238093DC010E942E0B089508950E9417
:101680003E0B08959091DD01292F2823281729F07A
:10169000982B9093DD010E943F0B08959091DD01FE
:1016A000292F2823211531F0809589238093DD018E
:1016B0000E943F0B08958091DD01811529F0109261
:1016C000DD0180E00E943F0B0895CF93C091070297
:1016D00080910602C82B8091DD01811531F0C82B65
:1016E0000E94B12081110E945B0B8C2FCF91089535
:1016F000CF93DF93C0910201D09103010E94650B4B
:101700008883C0910201D091030148E050E063ED6D
:1017100071E0CE010E949D2C892B59F088E0FE01DA
:10172000A3EDB1E001900D928A95E1F7CE010E9400
:101730008820DF91CF910895CF93DF93C09100016E
:10174000D09101010E94650B8983C0910001D09165
:10175000010140E250E063EB71E0CE010E949D2C5C
:10176000892B59F080E2FE01A3EBB1E001900D92CC
:101770008A95E1F7CE010E949320DF91CF910895E1
:1017800080912801811539F080915F0287FF03C0A5
:101790000E949C0B08950E94780B089508950E9462
:1017A000CE0B0895962F2091600222FF11C0682F62
:1017B000660F660F660F692B6093DB010E942D0791
:1017C0008091DB018695869586950E94CF0B0895C2
:1017D0000E942D0708951092DB0180E00E94CF0B3C
:1017E00008959091DB01809589238093DB01282F58
:1017F000277021110DC0891759F09091600292FF56
:1018000007C08695869586950E9439070E94EB0B46
:1018100008959091600292FB222720F9281769F021
:1018200080FB92F99093600280915F029091600238
:101830000E94510C82E00E94F10B08958091600299
:10184000002482FF0394802D0E94090C089581E0FA
:101850000E94090C089580E00E94090C08956FEF22
:101860007FEF80E090E00E94EF2C089580E090E010
:101870000E94BB2C853E9E4F19F40E94241F0895A0
:1018800080E0089582E090E00E94B32C089583E008
:1018900090E00E94B32C089584E090E00E94BB2C5D
:1018A0000895BC0184E090E00E94EF2C0895AB0104
:1018B000BC018FE090E00E94E32C0895AB01BC01D5
:1018C00083E190E00E94E32C089560E070E0CB019A
:1018D0000E945E0C089560E070E0CB010E94570CFE
:1018E0000E94650C0895A8E0B0E0E9E7FCE00C94E4
:1018F000762C65EE7EEF80E090E00E94EF2C60E0B9
:1019000082E090E00E94D12C81E08093710161E03F
:1019100083E090E00E94D12C60E074E184E090E0EC
:101920000E94EF2C60E086E090E00E94D12C60E005
:1019300087E090E00E94D12C40E050E0BA0188E0BE
:1019400090E00E94E32C60E083E290E00E94D12CC2
:1019500060E08CE090E00E94D12C60E08DE090E0AF
:101960000E94D12C19821A821B821C821D821E8227
:101970001F82188648E050E067E170E0CE010196D2
:101980000E94C12C40E050E0BA018FE190E00E943B
:10199000E32C80E00E943D1F0E946F1F0E946B0C91
:1019A0002896E2E00C94922C0E94730C0895682F04
:1019B0008EE090E00E94D12C0895A6E0B0E0E3EE26
:1019C000FCE00C94742C0E9477228C018091080218
:1019D000909109028017910779F019821A820E946A
:1019E0007722BC0149815A8180E090E00E94AA03DD
:1019F00010930902009308022696E4E00C94902CC0
:101A00000E94832260931C0270931D0280931E0229
:101A100090931F02609318027093190280931A0228
:101A200090931B0208950E94832260931C0270937E
:101A30001D0280931E0290931F0260931402709304
:101A40001502809316029093170208950895089541
:101A50000E94260D089508950E942B0D089581EE91
:101A60009FE00E9438110E94270D0E94280D0895C2
:101A700081E0089581E008950E94380D0895089549
:101A800008950E943F0D0E94400D08950E94360C5B
:101A9000811102C00E94D40C0E94420C809320024B
:101AA0000E944C0C9093600280935F020E94051884
:101AB0000E94470C0E940007809170010E94180745
:101AC00008950E946E220E947F1F0E948B100E9428
:101AD000460D0E947E030E947E110E942C0D0895E7
:101AE000A6E0B0E0E6E7FDE00C946D2C0E943A0D14
:101AF00081110FC00E94DD0C0E94D11181110E9442
:101B0000130D0E94511C0E9491032696EBE00C9449
:101B1000892C0E94A1108AE0A82E82E0B82E7501BF
:101B200010E0F70101917F01812F0E94EB0F1F5FF1
:101B30001A3009F442C00817A1F38091200281FDF8
:101B40000E94F10F0E943C0DC82E00E0992493944E
:101B5000802F0E94EB0F182FF50191915F018917DB
:101B600031F1D82ED926F12CEE24E3948D2D8E213F
:101B70008115B1F0C114A1F0F9820A830E94772285
:101B80009C838B839D8291E0812F8E21811101C0E6
:101B900090E049815A816B817C818D810E94AA03EA
:101BA000F394EE0CF6E0FF12E1CFF50112930F5F14
:101BB0000A3071F60E94000D9FCF0813BECF9ACF56
:101BC0001F93CF93DF930E94F10EEC01811522E564
:101BD000920708F04EC0811540E5940708F0C7C091
:101BE000883E9105E0F4803E910560F4853A9105C8
:101BF00070F4049738F481E0219709F080E0C82F51
:101C000050E0D52FCE01DF91CF911F9108958D5CCB
:101C10009109D0654397B0F3C0E0D0E0F3CFC11590
:101C200080E4D807E0F4C11590E2D90708F0B5C008
:101C3000CE019A9581159F4178F78D2F0E94920FC2
:101C4000182FCE0199270E94F10E212F30E0322F5C
:101C50002227E901CC27DF71C82BD92BD3CFCE01A6
:101C600099270E94F10ECC27DF70C82BD92BD06AA0
:101C7000C9CF803842E59407C8F5803652E595070C
:101C800008F056C0C03482E5D807D0F4C03292E5DF
:101C9000D90708F046C08C2F8695869520E2829F52
:101CA000C0011124C37021E030E0A90102C0440F3B
:101CB000551FCA95E2F7EA01C82BD92BDD68A2CFE0
:101CC0008C2F86958695877050E2859FC0011124E0
:101CD000C37021E030E0A90102C0440F551FCA952E
:101CE000E2F7EA01C82BD92BDC688CCF803C52E5A7
:101CF000950758F48F71C03AD24578F590E0982F47
:101D00008827EC01C46FD06A7DCF805C92458097B4
:101D100008F082CFDC2FCC27CC27DF71C06FD06AD0
:101D200071CFCF71D0E0DC2FCC27C16FD06A6ACFE2
:101D300086958695877020E2829FC0011124C3702A
:101D400021E030E0A90102C0440F551FCA95E2F717
:101D5000EA01C82BD92BDA6855CF0E94920FC82F01
:101D6000D0E0DC2FCC27CC27DF71D0624BCF8F7136
:101D70000E94920F53E0CC0FDD1F5A95E1F7CC275C
:101D8000DF70282F30E084FF04C050E1859F900170
:101D90001124C22BD32BD06935CF8D2F8F710E9488
:101DA000920F182FCE0199270E94F10E212F30E0BB
:101DB000322F222722273F71282B392BE901D5CF3B
:101DC000462F672F7A3028F4463018F40E94B9184D
:101DD000089580E090E008950E94E00E0E94E00DDA
:101DE00008959C01803E910509F448C0D8F48133E0
:101DF000910509F47DC048F48932910509F46DC05C
:101E00008A9709F47CC0C90108958933910551F17D
:101E10008238910539F1C597B1F780915F0285FF4E
:101E2000F2CF29C0843E910509F447C048F4823EB0
:101E3000910599F1833E9105A9F121EE30E0E3CFC0
:101E4000863E910509F444C0873E9105E1F68091F4
:101E50005F0283FD61C09091600291FF2BC024EE70
:101E600030E0D1CF80915F028370811152C08091A8
:101E7000600283FFC8CF29E230E0C5CF80915F02C6
:101E800080FD33C09091600290FFBDCF23EE30E023
:101E900084FFB9CF20E030E0B6CF80915F0282FDB1
:101EA000F5CFB1CF80915F0282FD30C0909160028A
:101EB00090FD2FC084FFA7CFEDCF8091600281FFFE
:101EC000A2CF80915F0227EE30E084FDE3CF9BCF6D
:101ED00080915F0283FDF7CF96CF80915F0285FDF1
:101EE0001EC08091600283FF8ECF29E330E08BCF4C
:101EF00080915F0286FF87CF2AE230E084CF809115
:101F00005F0286FF80CF21E330E07DCF22EE30E01C
:101F10007ACF20EE30E077CF26EE30E074CF25E3A5
:101F200030E071CF90915F0292FF10C041E0282F06
:101F30002471243009F040E031E0282F2871283046
:101F400009F030E0431711F02CE0822793FF10C016
:101F500041E0282F2471243109F040E031E0282F9E
:101F60002871283109F030E0431711F02CE0822766
:101F70003091600230FF10C051E0282F21712130D4
:101F800009F050E041E0282F2871283009F040E0A6
:101F9000541711F029E0822731FF10C041E0282FAB
:101FA0002171213109F040E031E0282F28712831DA
:101FB00009F030E0431711F029E0822794FD877E75
:101FC000089580E0089508950E94E30F089508950C
:101FD0000E94E70F0895E82FF0E0E559FD4F80815A
:101FE0000895089580EA8A95F1F7089500C008954C
:101FF0000E94F20F0895F894E82FE295EF70F0E058
:1020000041A18F7021E030E0B90102C0660F771F57
:102010008A95E2F7CB01962F9095942391A392A1F4
:10202000892B82A378940895CF93DF93CFE2D1E0F8
:1020300089918F3F11F00E94FB0F81E0C933D807CF
:10204000B9F7C9E2D1E089918F3F11F00E94FB0FEF
:1020500081E0CF32D807B9F7DF91CF910895A0E0A2
:10206000B0E0E5E3F0E10C94702CEC01D62E062FE5
:1020700010E0C801815D9E4F7C01FC0180818F3F93
:1020800009F444C0F894E82FE295EF70F0E091A1D4
:102090008F7021E030E001C0220F8A95EAF7892F86
:1020A000822B81A382A12095282322A378940E94C9
:1020B000F60FA9E2B1E091E0C12C8D918F3F79F04C
:1020C000E82FE295EF70E05EF0E0208130E08F7065
:1020D00002C0359527958A95E2F7892F20FD80E08B
:1020E000C82A990FF1E0AF32BF0739F7F7018081B5
:1020F0008F3F11F00E94FB0F61E0C11001C060E052
:102100008D2D0E94F80FC00FD11FC882CDB7DEB74A
:10211000E8E00C948C2C0E9414108AE0EBE6F2E0CC
:10212000DF01982F1D929A95E9F7E1E6F2E0DF01D1
:102130001D928A95E9F78AE00E94DE100E94E40F62
:102140000895AAE0B0E0E7EAF0E10C94732CFE01F8
:1021500031968AE0DF011D928A95E9F710E0FE2EA4
:102160000F2F612F8F2D902F0E942F101F5F1A307D
:10217000C1F74AE050E06F2D702F81E692E00E9497
:102180009D2C21E0892B81F420E04AE06BE672E08F
:1021900081E692E00E94DF10182F0E94E80F812F45
:1021A0002A96E5E00C948F2C8AE0EF2DF02FA1E623
:1021B000B2E001900D928A95E1F7E7CF0895A0E093
:1021C000B0E0E5EEF0E10C94702CD82EE92EF62E5E
:1021D000D72F042FC22F211579F081E0809323029D
:1021E0000E947722909322028093210280E0CDB753
:1021F000DEB7E8E00C948C2CC0902302C114B1F33C
:1022000080912102909122020E948F22059770F303
:1022100010E0A8016D2D7E2D8F2D9D2F0E949D2CED
:10222000892B41F0A8016D2D7E2D8F2D9D2F0E94B1
:10223000AA2CCC2D109223028C2FD9CF0E94700D86
:1022400008950E9410220E943D260E942F0D0E9498
:1022500057260E94610D0E9464260E9469260E94F2
:102260001E110E9483260E940D250E94410DF5CF6C
:102270009093510180935001089508950895ACE022
:10228000B0E0E5E4F1E10C94762C4F835887698740
:102290007A878B879C8786E0FE013796DE01119650
:1022A00001900D928A95E1F729813A814B815C81F9
:1022B0006D817E8180E090E02C96E2E00C94922C7F
:1022C000ACE0B0E0E6E6F1E10C94762C0E943F1120
:1022D00080E090E02C96E2E00C94922C21E030E03B
:1022E000F90102C0EE0FFF1F4A95E2F7AF01611539
:1022F00011F08E2B0895409584230895E0913901C3
:10230000F0913A0109950E943D110E943E110895F5
:10231000CF9368E272E08FE292E00E94A921C82F79
:10232000811521F08FE292E00E94A220909130026C
:1023300086E0EFE2F2E0DF01282F1D922A95E9F70F
:1023400090933002A8E2B2E001900D928A95E1F7F5
:1023500081E0911101C080E08C2BCF910895ACE019
:10236000B0E0E5EBF1E10C94762C4F8358878B8736
:102370009C87619579876A8786E0FE013796DE0142
:10238000119601900D928A95E1F729813A814B814E
:102390005C816D817E8180E090E02C96E2E00C947F
:1023A000922CA6E0B0E0E7EDF1E10C94762C609180
:1023B00024027091250280912602909127020E94AA
:1023C0009E22623371058105910508F456C00E9472
:1023D00083226093240270932502809326029093B7
:1023E0002702E0913B01F0913C0140912F02509176
:1023F00030026091310270913202809133029091EB
:1024000034020995F42FE52FCB01A9016F2F7E2F00
:102410000E94AF11F42FE52FCB0120932F023093B0
:102420003002F0933102E0933202609333029093D2
:102430003402A9016F2F7E2F0E94601120932F027A
:102440003093300240933102509332026093330252
:10245000709334020E94231C80913002832B80935E
:1024600030020E948811811102C080912E021092C8
:102470002E022696E2E00C94922C80E0FACFAC017A
:10248000815D9109089748F4415D809130020E9476
:102490006E11809330020E94881108950E94791372
:1024A0009C01AEEFB0E00E94452C68537F4F8F4FE8
:1024B0009F4F20E931E040E050E00E94F72BC90136
:1024C0000895A5E1B0E0E7E6F2E10C94702C488BAA
:1024D000598B6A8B7B8B8C8B9D8B0E9479136C0143
:1024E000CE0101960E94221540E060E089890E9499
:1024F0006E11898B8981811509F458C0A601B60136
:10250000CE0101960E948313E980FA800B811C8121
:102510002D813E814F8158856985CE0140960E946C
:10252000BB15811169C08091390290913A026A818C
:102530007B814C815D81009709F45BC08C159D0502
:1025400009F057C08091370290913802009709F442
:1025500050C0E0913502F0913602309709F449C03D
:102560006115710509F445C04115510509F441C0D3
:102570009B01281B390B203831056CF12FE730E027
:10258000CA018E1B9F0B8038910564F18FE790E0A4
:1025900070933802609337025093360240933502AD
:1025A000D0923A02C09239022A8B8B8B86E0FE01D0
:1025B0007096DE011A9601900D928A95E1F72A85B0
:1025C0003B854C855D856E857F8580E090E06596D6
:1025D000E8E00C948C2C20388FEF38078CF620E83C
:1025E0003FEFCECF80383FEF930794F680E89FEF20
:1025F000CFCF80E020E0CCCF80E020E0D5CF9C01A1
:10260000A0E9B1E00E94452C61587F4F8F4F9F4F4A
:102610002EEF30E040E050E00E94F72BC9010E940D
:102620007E130895EF92FF920F931F93CF93DF9342
:10263000C82F7B01D42F809175028115B1F0C06A3B
:1026400004E110E020E030E040E050E06C2F84E551
:102650000E94C9232D2F30E0A7016C2F84E50E9432
:102660001B24892B11F010927502CDB7DEB7E6E07E
:102670000C948E2CA1E0B0E0E0E4F3E10C94742C17
:10268000698390917502911581F0682F606804E16B
:1026900010E021E030E0AE014F5F5F4F84E50E9423
:1026A000C923892B11F0109275022196E4E00C9455
:1026B000902CFC01818192818F37910570F48FE716
:1026C00090E092838183838194818F33910558F4C4
:1026D0008FE390E09483838308958038974098F344
:1026E0008FE797E0EECF803C9540B0F38FEB95E01D
:1026F000F1CF809104019091050108959093050117
:10270000809304010895A0E0B0E0E9E8F3E10C94BF
:102710006E2CEC015B018A010E94591389819A8118
:10272000A0E0B0E0CB80DC80E12CF12C9C01AD017D
:102730002F57310941095109D5010E945B2C20E036
:1027400037E040E050E00E94F72B3A832983A7014D
:1027500096012F53310941095109D8010E945B2C80
:1027600020E835E040E050E00E94F72B3C832B83CB
:10277000CDB7DEB7EAE00C948A2C60E082E00E94DC
:102780003A1387EC90E00197F1F700C0000008953C
:10279000A1E0B0E0EEECF3E10C94752C182F41E0D1
:1027A000BE016F5F7F4F84E00E9412136981111593
:1027B00049F06160698384E00E943A132196E3E066
:1027C0000C94912C6E7FF6CFAF92BF92CF92DF9296
:1027D000FF920F931F93CF93DF930F92CDB7DEB786
:1027E000182F092F6B015A018FEF898380E00E9417
:1027F000C813602F8CE10E943A13612F8DE10E9473
:102800003A138601AC0CBD1C0A151B0559F40F9038
:10281000DF91CF911F910F91FF90DF90CF90BF90EC
:10282000AF90089565E08EE10E943A130E947722EE
:10283000D82EF92E41E0BE016F5F7F4F8EE10E94DE
:1028400012138981811531F08D2D9F2D0E948F22C9
:10285000459780F341E0B8018BE10E9412130E947A
:10286000BD130F5F1F4FD0CFA1E0B0E0EAE3F4E16A
:102870000C94732C182F092FF62E8FEF898380E08C
:102880000E94C8136F2D8BE10E943A13602F8CE1D8
:102890000E943A13612F8DE10E943A1362E08EE1AB
:1028A0000E943A130E9477228C0141E0BE016F5FC3
:1028B0007F4F8EE10E9412138981811529F0C80192
:1028C0000E948F22459788F30E94BD132196E5E070
:1028D0000C948F2CA1E0B0E0E0E7F4E10C94752CAF
:1028E000182F198241E050E0BE016F5F7F4F87E8EB
:1028F00091E00E94E413107C6981962F907C80E027
:10290000191789F06F73612B698387E891E00E9442
:10291000341441E050E0BE016F5F7F4F87E891E0E3
:102920000E94E41381E02196E3E00C94912CA1E055
:10293000B0E0EDE9F4E10C94722C41E0CE01019697
:102940007C01BC0187E00E94121369816160698388
:1029500087E00E943A130E9477228C0141E0B70180
:1029600087E00E941213898180FF06C0C8010E947F
:102970008F22893C910590F30E94BD132196E6E0D9
:102980000C948E2CA2E0B0E0E8ECF4E10C94762CF0
:102990001A82198241E0BE016E5F7F4F8AE00E9479
:1029A00012136EE18AE00E943A1341E0BE016F5FAC
:1029B0007F4F8AE00E94121389818E3149F46A8127
:1029C0008AE00E943A1381E02296E2E00C94922C75
:1029D00080E0FACF0E94492381E08093750261E094
:1029E00083E00E943A132FEF86E791E02150804068
:1029F0009040E1F700C0000060E083E00E943A13DD
:102A000087EC90E00197F1F700C000000E94BD1331
:102A100060E085E00E943A1362E084E00E943A138D
:102A200065E08AE00E943A1380EC0E946A148111EA
:102A30000E94971481E00E94C8130E94C2148093E0
:102A400075020895A7E0B0E0E8E2F5E10C94722C7D
:102A50008C011F82CE0101967C0186E0D7011D9278
:102A60008A95E9F741E0BE01695F7F4F82E00E94ED
:102A700012139F81892F847092FF44C046E0B701F2
:102A800082E10E9412130E94BD1369816F732D8130
:102A9000822F90E0982F882788279F703B81832B77
:102AA000F82EF92FB0E12B9F9001112422273F70BF
:102AB0004C81242BE22F732F4E814F7350E0282B33
:102AC000392B81E0232B09F480E091E0D8019C931D
:102AD0001196FC9211971296FC9312971396EC9311
:102AE000139714967C93149716965C934E931597B0
:102AF00017966C93179718968C93C8012796E6E063
:102B00000C948E2C90E060E0F12CF0E0E0E070E0BE
:102B100040E050E0DBCFAC018230910508F408952D
:102B20009FEF413E8EE1580740F4CA0125E096959B
:102B300087952A95E1F798E0980F61E0E62FE90F75
:102B4000FF27FF1F9F0135952795822F229FF001B8
:102B5000239FF00DF00D11244E175F0738F49FEFFF
:102B6000920F961758F78FEF860F08952F3FE9F3CE
:102B700061E0620FF6CFABE1B0E0E1ECF5E10C947F
:102B8000662C6C01EB8AFC8A0D8B1E8B2F8B388F89
:102B9000498F5A8F6B8F088D198DE0901401E114C5
:102BA00009F4C8C06C887D88EE88FF880E9479137C
:102BB0004C010115110551F41092110110921001F0
:102BC00010920C01312C20E080E0ADC0892B09F47B
:102BD00012C186E0FE013196DF011D928A95E9F768
:102BE000A12CB12C9301AEEFB0E00E94452CA501C1
:102BF00094010E94192CA1E87A2E720E7B82970113
:102C0000AEEFB0E00E94452CA50194010E94192C62
:102C100071E8720F7C8349815A81672D8D819E8175
:102C20000E94AF11F42EE52E29833A834B835C83F7
:102C30006D837E838091100190911101892B09F0A1
:102C4000DDC0BE2DBB02C0011124EF2DEE02800DB0
:102C5000911D11240E948B15282FF4E68F9FC0012F
:102C600011246FE770E00E94E32B3091060184E6A7
:102C700090E0831B91096817790774F081E08093D5
:102C80000C01F0920E01E0920F0120930D01F7FA72
:102C9000882780F980931201312C80910C018230B9
:102CA00009F090C180910E0120910F01FE2D2F029D
:102CB000D00111243F2D8302A00DB11D11248F02DC
:102CC000C00111243202900111241C01221A330A7E
:102CD0008217930709F026C1AA27B07820910A012C
:102CE00030E00E94542C20E030E041E050E00E94AF
:102CF000192C822F211509F45FC190911201309196
:102D00000B01311509F451C12195911509F452C1F6
:102D100020E0F0920E01E0920F0110931101009358
:102D2000100133243394D60114968C93149715967E
:102D30002C93E32C80911301811509F457C08B8DDE
:102D400096E0F601DE011D9601900D929A95E1F74D
:102D5000F601F18090913D02891701F180933D02C7
:102D600001151105A9F480913B0290913C020E944B
:102D70008F22883C910560F480913B0290913C0247
:102D8000892B31F040E061E08F2D0E946E11F82E0A
:102D90000E94772290933C0280933B0280913B02F9
:102DA00090913C020E948F228134964020F0109234
:102DB0003C0210923B02FE8686E0FE013D96DE015B
:102DC000119601900D928A95E1F786E0FE01319609
:102DD000DE01179601900D928A95E1F786E0FE01DB
:102DE0003796D60101900D928A95E1F78E2D6B965C
:102DF000E2E10C94822CE12CF12C1CCF30900C01E0
:102E000021E0321249CFA0900E014F2D0F2C000C63
:102E1000550B4A195109A7FC539590900F012E2D7F
:102E20000E2C000C330B2919310997FC3395449F64
:102E3000B001459F700D700D1124229FC001239F8A
:102E4000900D900D1124860F971F0E948B15909165
:102E50000701891708F421CF3A2D4E2D3402B00115
:102E600011248F2D992D8902F00111246E177F07EF
:102E700009F451C080910D01889FC0011124A92D32
:102E80004A02A0011124BF2DB302400D511D11248F
:102E900057FF03C05195419551099C01241B350BE7
:102EA00037FF03C09A01281B390B032E000C440B7B
:102EB000550B4B018E1A9F0A97FE03C04F01861ACD
:102EC000970A092C000CAA08BB0829013A014818E6
:102ED00059086A087B08C301B201FDE0660F771F3D
:102EE000881F991FFA95D1F7280D391D4A1D5B1DC2
:102EF0000E94192C80E090E2FC01E21BF30B9F0181
:102F000080910801909109012817390738F483E06E
:102F100080930C01C1CE20E030E0F2CF82E08093BC
:102F20000C01BBCE2D010B2E000C66087708A10109
:102F300037FE03C0A901481B590B4A01A12CB12C33
:102F4000C301B201640F751F811D911D9B01AC016E
:102F5000B7FD19C0481859086A087B08C301B201B7
:102F6000EDE0660F771F881F991FEA95D1F70E9441
:102F7000192CA0E0B0E2A21BB30B37FEAFCEB19587
:102F8000A195B109ABCE2DE0660F771F881F991F61
:102F90002A95D1F7A5019401241935094609570945
:102FA0000E94192CA0E0B0E6E6CF911103C0822F59
:102FB0008195AECE80E0ADCE10931101009310014B
:102FC00020E0AFCE1093110100931001FCCD0E94C0
:102FD0002F0C089580E00E94EB0F817008950E94ED
:102FE000A1102FEF86E791E0215080409040E1F75B
:102FF00000C000000E94A1100E94EA17811521F074
:103000000E94E7170E94D82208950E94EF170895A2
:1030100086E0089550E0440F551F9CE0699F400DE5
:10302000511D112498E7899F400D511D1124CA019B
:10303000889608950F931F93CF93DF938630C8F43B
:103040006A30B8F44630A8F40E940A188C010E9435
:10305000B32CC82FD0E0DC2FCC27C80101960E94EA
:10306000B32C9E01282BC901DF91CF911F910F91A5
:10307000089580E090E0F8CF0F931F93CF93DF93F4
:10308000122F032F863078F46A3068F4463058F4F3
:103090000E940A18EC01602F0E94D12C612FCE01F2
:1030A00001960E94D12CDF91CF911F910F9108952D
:1030B0001F93CF93DF93D0E0C0E011C0412F6C2F5E
:1030C0008D2F0E9459029C01412F6C2F8D2F0E9441
:1030D0003C181F5F163091F7CF5FCA3011F010E037
:1030E000EDCFDF5FD63041F7DF91CF911F9108958B
:1030F000EF92FF920F931F93CF93DF938C01EA011E
:103100007A01E60EF71ECE15DF0529F4CDB7DEB73E
:10311000E6E00C948E2C003D82E0180740F4C801D4
:1031200088960E94B32C89930F5F1F4FECCF80E0ED
:10313000FACFEF92FF920F931F93CF93DF938C01FF
:10314000EA017A01E60EF71ECE15DF0529F4CDB7A8
:10315000DEB7E6E00C948E2C003D82E0180728F4E0
:103160006881C80188960E94D12C21960F5F1F4F5D
:10317000EBCF863038F46A3028F4463018F40E94D9
:103180001A18089580E090E0089580E1089588E09D
:1031900091E00895EF92FF920F931F93CF93DF93E7
:1031A0008C01EA017A01E60EF71ECE15DF0529F43F
:1031B000CDB7DEB7E6E00C948E2C083081E018071E
:1031C00048F4C80188509D4F0E94B32C89930F5F2B
:1031D0001F4FEBCF80E0FACFEF92FF920F931F9338
:1031E000CF93DF938C01EA017A01E60EF71ECE152C
:1031F000DF0529F4CDB7DEB7E6E00C948E2C08305D
:1032000081E0180730F46881C80188509D4F0E9402
:10321000D12C21960F5F1F4FEACFCF93DF93C8EFDA
:10322000D2E060E0CE010E94D12C2196C11584E04D
:10323000D807B9F7DF91CF910895A8E0B0E0E3E2B5
:10324000F9E10C946E2CF82E20E1821708F067C08B
:103250008FEF93E00E94B32C811161C008EF12E060
:10326000F11033C0FE0131965F0188E011928A951A
:10327000E9F76801FFEFCF1ADF0AC8010E94B32CFB
:1032800089831A82811509F44AC08130C1F478011A
:1032900022E0E20EF11CC6010E94B32C8A83811544
:1032A000F1F19FEF980F9330E8F482E0C80ED11C43
:1032B000C7010E94B32C8B83811589F11C8260E0C9
:1032C000C5010E94D61D8601D4CF011584E01807E0
:1032D00031F1C8010E94B32C0F5F1F4F8111F5CF50
:1032E000FA94BECF8430A1F402E010E0C701EFEF02
:1032F000EE1AFE0A0E94B32CF501E00FF11F808345
:10330000811569F08C3731F4FE01E00FF11F128254
:103310006701D5CF0F5F1F4F0730110539F728968A
:10332000EAE00C948A2CCF93DF93EB0186319C4723
:1033300019F50E94080B9D819115A1F08A7A91E000
:10334000811101C090E090933E02811549F085E320
:103350000E9461210E94C00B80E0DF91CF9108950F
:1033600089E2F6CF80913E02811521F085E30E942B
:103370007821F0CF89E2FBCF81E0EFCFCF93DF93CD
:10338000EC01FB018581811509F4CFC09E01305706
:103390002332310508F0AFC00E944C0C90936002BC
:1033A00080935F02FE01E150F047E232F10520F424
:1033B000E95FF24D0C94382C80915F02816080931C
:1033C0005F0290C0809160028860809360028AC032
:1033D00080915F028260F3CF80915F028460EFCFC3
:1033E00080915F028860EBCF809160028160EDCFB9
:1033F000809160028260E9CF80915F028061DFCFBF
:1034000080915F028062DBCF80915F028064D7CFC2
:103410000E94AC0680915F028068D1CF80915F02EC
:103420008C60CDCF809160028360CFCF80915F02AE
:103430008E7FC5CF80916002877FC7CF80915F026A
:103440008D7FBDCF80915F028B7FB9CF80915F026E
:10345000877FB5CF809160028E7FB7CF8091600269
:103460008D7FB3CF80915F028F7EA9CF80915F0265
:103470008F7DA5CF80915F028F7BA1CF0E94AC068C
:1034800080915F028F779BCF80915F02837F97CF80
:10349000809160028C7F99CF80915F02992782FF93
:1034A000939590FB82F990FB83F989CF809160021C
:1034B000982F909590FB80F990FB81F986CF9091A1
:1034C0005F02892F8F7B96FF806479CF0E94AC06C4
:1034D00090915F02892F97FB87F9805870CF81E028
:1034E0000E94D70C80915F02909160020E94510C63
:1034F0000E94AC0680E0DF91CF91089580E0F0CF8C
:1035000090915F02892F8F7E94FF806158CF9091B8
:103510005F02892F8E7F90FF816051CF9091600272
:10352000892F877F93FF886050CF81E0E4CF282FD9
:1035300035EB2303C001112497FF04C08058910983
:10354000892F089580589F4FFBCF8091470280FFBD
:103550000DC06091190170E0660F771F603871052A
:10356000B0F561157105A9F1862F089581FF07C097
:103570006091190184E0689FB0011124EFCF82FFB0
:1035800004C06091190188E0F6CF90914602911530
:10359000D9F02091180180911901682F70E09217DD
:1035A00030F043E0660F771F4A95E1F7D7CF899F48
:1035B000C001112433E0880F991F3A95E1F7622F7B
:1035C00070E00E94E32BCACF68E070E0CDCF8FE7B8
:1035D000089581E008958091470280FF0CC06091BA
:1035E000160170E07595679575956795611571057C
:1035F00049F1862F089581FF06C06091160170E0A1
:1036000075956795F3CF6091160182FD0BC090917F
:1036100045029115A1F06091150180911601961750
:1036200038F0682F70E06038710500F38FE7089577
:10363000899FC001112470E00E94E32BF4CF61E068
:1036400070E0D7CF81E0089590914A0220914B021B
:10365000922B20914D02922B20914C02922B91158E
:1036600031F098E09093460291E090934502E3E3B5
:10367000E80FE331E0F5F0E0E75DF24D0C94382C13
:103680000E94A51A819580934B0208950E94A51A65
:10369000FACF0E94A51A819580934A0208950E944C
:1036A000A51AFACF0E94EB1A80934C0208950E944B
:1036B000EB1A8195F9CF0E94EB1A819580934D0208
:1036C00008950E94EB1AFACF815D990B21E030E05A
:1036D00001C0220F8A95EAF780914902822B8093DC
:1036E00049020895809147028160809347020895BE
:1036F000809147028260F9CF809147028460F5CFC4
:1037000040914A028D3C59F480914B0287FF0DC0D5
:1037100010924B02411559F41092460208C08E3C9B
:1037200081F480914B0218169CF3411581F0809131
:103730004C0290914D02892B811159C01092450283
:1037400008958F3C41F447FFF0CF10924A028091D8
:103750004B028115E0CF803D19F41416B4F3E5CF88
:1037600090914C02893D29F41916FCF610924C02F6
:10377000DCCF8A3D19F497FFD8CFF8CF90914D0256
:103780008B3D29F497FFD1CF10924D02CECF8C3DC7
:1037900019F41916CCF3C9CF9FE2980F983090F422
:1037A000815D990B21E030E0B90102C0660F771FFF
:1037B0008A95E2F7CB018095909149028923809305
:1037C0004902B3CF8D3D31F4809147028E7F8093C3
:1037D0004702ABCF8E3D21F4809147028D7FF7CF1A
:1037E0008F3D09F0A2CF809147028B7FF0CF0895E3
:1037F0000E94772220914A0230914B02232B2115FF
:1038000021F0809343029093440220914C02309126
:103810004D02232B211521F0809341029093420207
:1038200088E492E00E94A220089586E0E8E4F2E0B5
:10383000DF011D928A95E9F7109246021092450227
:10384000109247020895A6E0B0E0E9E2FCE10C9492
:10385000762C86E0E8E4F2E0DE01119601900D920C
:103860008A95E1F729813A814B815C816D817E8166
:1038700080E090E02696E2E00C94922CFC0182819C
:1038800081110DC0838181110AC08481811107C01B
:1038900081E09581911101C080E08170089581E0FF
:1038A000FCCFA6E0B0E0E7E5FCE10C94702C86E0EC
:1038B000E8E4F2E09E012F5F3F4FD90101900D92A5
:1038C0008A95E1F710924A0210924B0210924C0234
:1038D00010924D028B819C81892B7901811589F091
:1038E00080914302909144020E948F226C0180914A
:1038F00046028115B9F190911A019C151D0408F436
:103900003EC08D819E81892B811591F0809141026D
:10391000909142020E948F228C0180914502811574
:1039200009F45FC0909117019017110608F467C061
:10393000B70188E492E00E94A921811105C088E4C2
:1039400092E00E943E1C81110E94F81B86E0F70164
:10395000A8E4B2E001900D928A95E1F72696E8E09E
:103960000C948C2C209140029AE0299F9001112404
:103970002C153D0530F68F5F8093460202C08F3FC5
:10398000D1F7DB80D11459F00E94A51A91E01D14E3
:103990000CF09FEF899F802D112480934A02DC80D8
:1039A000D11459F00E94A51A91E01D140CF09FEF5C
:1039B000899F802D112480934B0280914A028115AA
:1039C00009F49FCFD0904B02D11409F49ACF0E94F2
:1039D000971A80934A028D2D0E94971A80934B026A
:1039E00090CF20913F029AE0299F90011124201747
:1039F000310708F09DCF8F5F8093450202C08F3F53
:103A0000D1F71D81111559F00E94EB1A91E01116A2
:103A10000CF09FEF899F802D112480934C021E8112
:103A2000111559F00E94EB1A91E011160CF09FEF5E
:103A3000899F802D112480934D0280914C02811525
:103A400009F476CF10914D02111509F471CF0E943F
:103A5000971A80934C02812F0E94971A80934D02EF
:103A600067CFA0E0B0E0E7E3FDE10C946F2CE82F16
:103A7000F0E0EC5EFD4FB490282F26952695269514
:103A800030E0F901EC54FD4F0491877010E0082EEE
:103A900002C0159507950A94E2F701701127F90104
:103AA000EC55FD4FE490F12C082E02C0F594E794FC
:103AB0000A94E2F7E0FAEE24FF24E0F8F901EC566C
:103AC000FD4FC491D0E002C0D595C7958A95E2F725
:103AD000C170DD27C62ED12C0115110549F5E11461
:103AE000F10431F086EE0E94FF03C601009771F5E4
:103AF000B6018B2D0E944F04C601009779F5E114A1
:103B0000F104A1F50115110531F081EE0E942E049A
:103B1000C6010097C9F5CD2B31F08CE20E946904F3
:103B2000C114D104C9F5CDB7DEB7E9E00C948B2CF4
:103B300081EE0E94FF03C601009789F2EFE9FFE0E2
:103B40003197F1F700C000000197F6CFEFE9FFE0F1
:103B50003197F1F700C000000197C8CFEFE9FFE00F
:103B60003197F1F700C000000197C7CF86EE0E94A1
:103B70002E04C601009731F2EFE9FFE03197F1F72B
:103B800000C000000197F6CFEFE9FFE03197F1F7B1
:103B900000C000000197BDCF8FE99FE00197F1F7CA
:103BA00000C0000091E0C91AD108BACFEF92FF928D
:103BB0001F93CF93DF93EC01162F8881811509F4B1
:103BC0005AC0813009F053C08981813071F47E017F
:103BD00082E0E80EF11C8A810E946904E701812FCE
:103BE00090E00097E1F52196E8CF823041F47E0124
:103BF000E2E0EE0EF11C8A810E94FF03EFCF8330DA
:103C000041F47E01F2E0EF0EF11C8A810E942E0445
:103C1000E5CF843011F02196E2CF2A81229680E010
:103C200090E06AE0AE014F5F5F4F2053330B2A30C4
:103C3000310550F0009799F2EFE9FFE03197F1F785
:103C400000C000000197F6CF689FF001699FF00D5A
:103C50001124C9018E0F9F1F2981EA01E3CFEFE9EB
:103C6000FFE03197F1F700C000000197BACF612F54
:103C70000E94311DB8CFDF91CF911F91FF90EF903F
:103C800008950F931F93CF93DF93C42FD22FFC017E
:103C900085818115C9F0409350020E94772290934C
:103CA0004F0280934E0280E28C0F883040F4C77040
:103CB00081E001C0880FCA95EAF70E947204DF9183
:103CC000CF911F910F91089510915002141333C09A
:103CD00080914E0290914F020E948F22883C910564
:103CE00050F5C0E2CD0F1D17C1F080E2810F883082
:103CF00040F4177081E001C0880F1A95EAF70E941E
:103D00007904C83050F491E08D2F877001C0990F6D
:103D10008A95EAF7892F0E947204802F0E94690415
:103D2000C83068F6D77081E001C0880FDA95EAF7ED
:103D30000E947904C4CF80E28C0F883008F0BFCF96
:103D4000C77081E001C0880FCA95EAF7F1CF0F93E1
:103D5000DB01FC01E851FC47E730F10598F5E45C34
:103D6000F24D0C94382C06E221EE41EE6AE17CE73C
:103D7000CD010E94411E80E00F91089507E225EEDB
:103D800045EE6BE17CE7F4CF06E221EE40EE68E120
:103D90007CE7EECF07E225EE44EE69E17CE7E8CF71
:103DA00006E221EE42EE6CE17CE7E2CF07E225EE8F
:103DB00046EE6DE17CE7DCCF08E221E045EE6EE106
:103DC0007CE7D6CF15968C9181111092500281E03C
:103DD000D3CFCF93DF939C01FB0127378CE73807C4
:103DE00039F028373C47F1F081E0DF91CF91089519
:103DF0008581811591F00E941B1F0E942D070E9452
:103E0000211FD82F0E941E1FC82F0E941B1F4D2F3D
:103E10006C2F0E945E0880E0E8CF0E941B1F0E946A
:103E20003907EDCF8581811519F00E941E1FE5CF5E
:103E30000E941E1FF4CF80911D01089580911C01E6
:103E4000089580911B01089584E290E00E94B32CB4
:103E5000843289F485E290E00E94B32C893059F4D1
:103E600086E290E00E94B32C91E0843009F090E06B
:103E7000892F8170089580E0FCCFCF93C82F64E232
:103E8000811101C06FEF84E290E00E94D12C69E0C3
:103E9000C11101C06FEF85E290E00E94D12C64E077
:103EA000C11101C06FEF86E290E00E94D12CCF914A
:103EB0000895089587E290E00E94B32C682F70E087
:103EC00080E090E008950895CF93C62F0E94631F6D
:103ED0006C2F87E290E00E94D12CCF91089580E072
:103EE0000E943D1F60E070E0CB010E94641F0E94B1
:103EF00058180E940D1981E00E943D1F08950E94EC
:103F0000591F0E945A1F0E94631F0E94241F811183
:103F100002C00E946F1F089508959C01FB018581D6
:103F2000811551F0A90157574038510530F4822FBF
:103F30000E941D1980E0089581E008952FEFFC0193
:103F4000208308950E949E1F089580E00895CF92D7
:103F5000DF92FF920F931F93CF93DF93EC01F62E26
:103F60000E94A51F811110C0E881E150E331E0F407
:103F7000F0E0ED5BF24D0C94382C19828CE08A83D2
:103F80006F2DCE010E940325DF91CF911F910F91DC
:103F9000FF90DF90CF90089589818330F9F038F455
:103FA000813061F0823099F08FEF8883E9CF8430DF
:103FB000D9F71A821B821C821D82E2CF0E948322C3
:103FC0000E943E2C6A837B838C839D83D9CF0E9481
:103FD0005A1F1A821B821C826D83D2CF0A8110E085
:103FE0006E0183E0C80ED11C0A3011054CF6802FFB
:103FF0000E94EB0FF60181936F010F5F1F4FF4CF0B
:104000008981823031F0853079F68A810E948C1F57
:10401000B7CF6A817B818C819D810E943E2C0E945A
:10402000641FAECF4B816A8189810E941A1898273C
:10403000892798279D838C83A3CF2C813D813227AC
:10404000232732274B816A8189810E943C1898CFAF
:104050000E94581895CF6F2DCE010E94A21F90CFBD
:104060000E94C51889838CCF0E94C718982789277A
:1040700098279A83898384CF6B8170E089819A81A4
:10408000AE014C5F5F4F9827892798270E94CA1876
:1040900077CF6B8170E089819A81AE014C5F5F4F71
:1040A0009827892798270E94EC186ACF0E940D193B
:1040B00067CF0E940818D6CF6B8170E089819A8102
:1040C000AE014C5F5F4F9827892798270E94781888
:1040D00057CF6B8170E089819A81AE014C5F5F4F51
:1040E0009827892798270E9499184ACF90935202BF
:1040F000809351020895E0915102F091520230975D
:1041000029F00190F081E02D0995089580E008954F
:10411000E0915102F0915202309721F00280F38138
:10412000E02D09950895DC01E0915102F0915202D1
:10413000309739F086E08C930480F581E02DCD0135
:1041400009950895DC01E0915102F09152023097F7
:1041500039F082E08C930680F781E02DCD0109953E
:10416000089520910201309103012E5F3F4F80910D
:104170002801811579F080915F0287FF0BC02091A3
:104180000001309101012E5F3F4F9EE180E0915090
:1041900018F4089596E0FACFF90141919F01411575
:1041A000B1F38F5FF4CF8115A1F1909128019115A2
:1041B00021F090915F0297FD0FC020910201309194
:1041C0000301F9013296285F3F4F9191981719F139
:1041D000E217F307D1F71DC0982F969596959695FF
:1041E000803FB8F4E0910001F0910101E90FF11D69
:1041F000228130E0877041E050E0BA0102C0660FD2
:10420000771F8A95E2F7CB012623392381E0232B00
:1042100019F480E0089581E008959C01FC01329634
:104220008FEF90E04191461751F08F3F19F4411103
:1042300001C0892F9F5F9630A9F78F3F09F4089539
:10424000280F311D87FD3A95F901628308959C017D
:10425000FC013296285F3F4F8191861302C0DF0137
:104260001E92E217F307C1F70895FC01862F869589
:1042700086958695603F60F4E80FF11D677021E038
:1042800030E001C0220F6A95EAF78281822B828397
:104290000895FC01862F869586958695603F80F46B
:1042A000E80FF11D677081E090E09C0102C0220FD1
:1042B000331F6A95E2F7B9016095828168236283B2
:1042C0000895682F80912801811559F080915F022F
:1042D00087FF07C080910001909101010E94352164
:1042E000089580910201909103010E940D2108958B
:1042F000682F80912801811559F080915F0287FF16
:1043000007C080910001909101010E944921089508
:1043100080910201909103010E94272108958091CC
:104320002801811579F080915F0287FF0BC0E09131
:104330000001F091010132968EE1DF011D928A9514
:10434000E9F70895E0910201F0910301329686E0C9
:10435000F4CFDC01FB0111969C9111978181981398
:1043600022C012968C911297811519F092818913AF
:104370001AC013968C911397811519F093818913A4
:1043800012C015968C911597811519F09581891396
:104390000AC014969C91911521F081E02481291383
:1043A00003C080E001C081E08170089508950E94FB
:1043B000D62108958F5F809353020E94D7210895DC
:1043C00083E0809353020E94D72108950E94DA214E
:1043D000089581E0809353020E94D72108950E949E
:1043E000E9210895089508950E94F32108950895FC
:1043F00008950E94F2210895CF930E94F7210E9410
:10440000A1100E94F821C0E08C2F0E94EB0F8111B7
:1044100005C0CF5FCA30C1F7CF91089581E0FCCFCE
:1044200085B7806885BF85B7806885BF08951F926E
:104430001FB61F9211248F939F93AF93BF938091C8
:104440005402811113C08091760290917702A0915D
:104450007802B09179024196A11DB11D8093760238
:1044600090937702A0937802B0937902BF91AF91B5
:104470009F918F911F901FBE1F90189580917E0273
:10448000843031F10E945F031092540288E190E081
:1044900020E40FB6F894A895809360000FBE209397
:1044A000600083B7817F846083BF83B7816083BFEF
:1044B0007894889583B78E7F83BF0FB6F894A895BC
:1044C00080916000886180936000109260000FBE50
:1044D00008950E94AC060E946603089582E084BDA0
:1044E00093E095BD9AEF97BD80936E0008952FB726
:1044F000F8948091760290917702A0917802B09121
:1045000079022FBF08952FB7F894609176027091C9
:10451000770280917802909179022FBF08959C01D3
:104520004FB7F8948091760290917702A09178022B
:10453000B09179024FBF821B930B08950F931F9385
:104540008B019C014FB7F8946091760270917702CD
:1045500080917802909179024FBF601B710B820BA2
:10456000930B1F910F91089578941F921FB61F927D
:1045700011248F939F93AF93BF9380917602909174
:104580007702A0917802B09179020196A11DB11D28
:104590008093760290937702A0937802B093790289
:1045A000BF91AF919F918F911F901FBE1F90189543
:1045B00087E797E7909301088093000888E19AE0E5
:1045C0000FB6F894A895809360000FBE909360009A
:1045D000FFCF88E19AE00FB6F894A8958093600029
:1045E0000FBE90936000FFCFFF920F931F93CF9366
:1045F000DF93182FEB011092BC0084EA8093BC007B
:104600000E947722082FF92E8091BC0087FF28C0D6
:104610008091B900887F883029F08091B900887F27
:104620008031A1F51093BB0084E88093BC000E9408
:104630007722182F092F8091BC0087FF1FC020917F
:10464000B900287F80E090E0283199F081E090E087
:10465000203411F480E090E091958195910909C092
:10466000802F9F2D0E948F22C817D90768F68EEFE2
:104670009FEFCDB7DEB7E5E00C948F2C812F902F04
:104680000E948F22C817D907B0F6F1CF8FEF9FEFA6
:10469000F0CF1092B9008CE08093B80008950F938A
:1046A0001F93CF93DF93EB018093BB0084E880934B
:1046B000BC000E947722182F092F8091BC0087FF31
:1046C00011C02091B900287F81E090E0283211F4D8
:1046D00080E090E0919581959109DF91CF911F91B4
:1046E0000F910895CF3FDC0741F3812F902F0E9457
:1046F0008F22C817D90708F78EEF9FEFEECF0F93E1
:104700001F93CF93DF93EC0184EC8093BC000E9455
:104710007722182F092F8091BC0087FF08C0809155
:10472000BB0090E0DF91CF911F910F910895CF3F93
:10473000DC0789F3812F902F0E948F22C817D90799
:1047400050F78EEF9FEFEECF0F931F93CF93DF9332
:10475000EC0184E88093BC000E947722182F092F77
:104760008091BC0087FF08C08091BB0090E0DF9182
:10477000CF911F910F910895CF3FDC0789F3812FCF
:10478000902F0E948F22C817D90750F78EEF9FEF06
:10479000EECFA0E0B0E0EFECF3E20C946A2C682ED0
:1047A000962E5A01690178010E947722782E892E6F
:1047B0000431110530F10F3F100731F1C80164E1F8
:1047C00070E00E94CF2B162F072F612F702F862DA0
:1047D0000E94F422EC01892BC9F0FFEFEF16FF06CF
:1047E000A1F3872D982D0E948F22E816F90668F70D
:1047F00084E98093BC00CE01CDB7DEB7EEE00C9427
:10480000862C11E000E0E1CF15E0FCCFB701892D47
:104810000E944F23EC018501CA0CDB1C0C151D0501
:1048200039F3209729F7B701F80181918F010E9490
:104830004F23EC01F3CFA0E0B0E0E1E2F4E20C940E
:104840006A2C982E862E6A01590178010E947722DF
:104850003C010431110550F10F3F100751F1C8011F
:1048600064E170E00E94CF2B162F072F612F702F6D
:10487000892D0E94F422EC01892BE9F0FFEFEF165D
:10488000FF06A1F3C3010E948F22E816F90670F714
:1048900084E98093BC00CE011C161D0614F480E050
:1048A00090E0CDB7DEB7EEE00C94862C11E000E08E
:1048B000DDCF15E0FCCFB701882D0E944F23EC011E
:1048C000892B31F7689490F80E947722782E892EF0
:1048D00084E1E816F10450F1EFEFEE16FE0649F11F
:1048E000C70164E170E00E94CF2B162F072F612FC4
:1048F000702F892D0E94F422EC01892BE1F400E055
:1049000010E0F1E0AF1AB1080A151B0500F5D7FD5C
:10491000BFCFC7010E947F23EC0197FD04C0F601C1
:10492000E00FF11F80830F5F1F4FEECF11E000E01B
:10493000DECF15E0FCCF8FEFE816F806C1F2872D29
:10494000982D0E948F22E816F90688F6D8CFD7FD59
:104950009FCFC7010E94A423EC0197FD05C0CA0C9C
:10496000DB1CF601808394CFCEEFDFEF91CF8091F7
:104970005D0208950895282FCB01BA0130917E027F
:104980003430D9F42F702093E9002FEF3091E800F4
:1049900035FD06C035ED3A95F1F700002A95B1F7DF
:1049A0002091E80025FF09C040E050E00E94F92670
:1049B0008091E8008E778093E8000895BC0146E07E
:1049C00050E084E00E94BB240895BC0140E250E026
:1049D00084E00E94BB240895CF93DF93D82FC92F82
:1049E00048E050E0682F792F81E00E94BB2488E0E6
:1049F000ED2FFC2FA5E5B2E001900D928A95E1F72D
:104A0000DF91CF910895792F603231F440E250E088
:104A1000682F82E00E94BB240895A0E2B0E0E3E1A9
:104A2000F5E20C94762C80917E02843009F583E0C7
:104A30008093E9008091E80082FF1AC08091E8002D
:104A400090E085FF09C040E050E060E270E0CE01F8
:104A500001960E94492791E08091E8008B7780932E
:104A6000E800911529F060E2CE0101960E94A71F8F
:104A7000A096E2E00C94922C80917D02811109C0F5
:104A80000E94D2280E942F298091E20084608093A6
:104A9000E200089510927D0208950E94E921089590
:104AA00060917A0281E0611101C080E00E94E02102
:104AB000089590917E0281E0943009F080E0609149
:104AC0007A020E94E621089542E061EC81E00E94B2
:104AD0004E2842E261EC84E00E944E2842E261EC02
:104AE00082E00E944E2842E260EC83E00E944E2861
:104AF00090917E0281E0943009F080E060917A022A
:104B00000E94DA21089580918002893089F148F469
:104B1000823009F4A1C0833009F45BC0813041F0D8
:104B200008958A3009F488C08B3009F46DC0089567
:104B300080917F02813A09F04BC08091E800877F25
:104B40008093E8008091830290918402892B61F028
:104B500060E080E090E070E00E9499278091E8009A
:104B60008B778093E800089568E085E592E0F3CFC5
:104B700080917F02813261F580918302909184025D
:104B80008D7F892B29F58091E800877F8093E8004D
:104B90008091E80082FF18C09091F3008091F200AC
:104BA000029731F48091F100813011F0863021F4C8
:104BB0008091F10080935D028091E8008B77809373
:104BC000E8000E948228089580917E028111E0CF42
:104BD000089580917F02813AD9F780918302909164
:104BE0008402892BA9F78091E800877F8093E800F1
:104BF0008091E80080FFFCCF809128018093F10034
:104C00008091E8008E77DBCF80917F02813201F7BF
:104C10008091830290918402892BD1F68091E800E3
:104C2000877F8093E8000E94822880918102809390
:104C300028010E94AC06089580917F02813241F6DE
:104C40008091E800877F8093E8000E94822880910D
:104C5000820280935E02089580917F02813A09F07A
:104C6000B7CF8091E800877F8093E8008091E800CB
:104C700080FFFCCF80915E02C1CF84B7877F84BF65
:104C80000FB6F894A89580916000886180936000C9
:104C9000109260000FBE80E890E00FB6F894809309
:104CA0006100909361000FBE0E94EF2108950E9461
:104CB000D2280E942F29E2EEF0E080818460808378
:104CC00078940E94B52B08958EE191E00E947620A1
:104CD000089580917E02853031F480917E02853086
:104CE00019F00E94692208950E943E2280917C0260
:104CF000811599F30E94FC21811579F30E94E32626
:104D00000E94AC06EACF08959A0140918502509125
:104D100086020E948C260895FC01AB01D901892FDF
:104D2000992783309105C1F068F48130910509F429
:104D300045C0029761F48BE590E02CE133E02D93C0
:104D40003C93089581329105E1F0829739F180E03A
:104D500090E020E030E0F3CFCF019927E13059F027
:104D60008230910559F0E8E1F3E0892B81F78491D5
:104D700090E09F01E4CFE0EEF2E0F9CFE4ECF2E066
:104D8000F6CF6330710518F7FB01EE0FFF1FE65BEE
:104D9000FE4F2081318189E090E0D1CF63307105F1
:104DA000B0F6FB01EE0FFF1FEC5BFE4F208131815F
:104DB0004F5B5E4FFA01808190E0C1CF82E190E0CD
:104DC00027E733E0BCCF80E189BD82E189BD09B42A
:104DD00000FEFDCF8091D8008F7D8093D800809118
:104DE000E00082608093E0008091E00081FDFCCFD4
:104DF0000895AF92BF92CF92DF92EF92FF920F93FE
:104E00001F93CF936C018B017A010E94A128C82FB8
:104E1000811123C0E114F10439F0F70180819181FF
:104E2000081B190BC80ED91EA12CB12C0115110598
:104E3000A1F08091E80085FD21C08091E8008E7787
:104E40008093E800E114F10499F0F70180819181E9
:104E50008A0D9B1D91838083C5E08C2FCF911F917C
:104E60000F91FF90EF90DF90CF90BF90AF9008959B
:104E70000E94A1288115E9F2C82FEFCFF601819198
:104E80006F018093F10001501109FFEFAF1ABF0AC3
:104E9000CDCFAF92BF92CF92DF92EF92FF920F935E
:104EA0001F93CF936C018B017A010E94A128C82F18
:104EB000811123C0E114F10439F0F701808191815F
:104EC000081B190BC80ED91EA12CB12C01151105F8
:104ED000A1F08091E80085FD21C08091E8008B77EA
:104EE0008093E800E114F10499F0F7018081918149
:104EF0008A0D9B1D91838083C5E08C2FCF911F91DC
:104F00000F91FF90EF90DF90CF90BF90AF900895FA
:104F10000E94A1288115E9F2C82FEFCF8091F100FE
:104F2000F60181936F0101501109FFEFAF1ABF0A1B
:104F3000CDCFFC019B01809185029091860286175E
:104F4000970718F0672B61F0C90140E0009771F4F2
:104F500041110CC08091E80082FF35C080E00895C7
:104F60008091E8008E778093E800EECF20917E025A
:104F70002115A9F12530A9F12091E80023FD2DC0CC
:104F80002091E80022FDE6CF2091E80020FFDECF4F
:104F90003091F3002091F200009719F0283031058C
:104FA00058F041E02830310509F040E02091E80058
:104FB0002E772093E800CACF41914093F1000197EA
:104FC0002F5F3F4FE9CF80917E02811541F0853000
:104FD00041F08091E80083FFBDCF81E0089582E039
:104FE000089583E00895FC019B01809185029091D2
:104FF00086028617970718F0672B61F0C90140E019
:10500000009771F441110CC08091E80082FF36C016
:1050100080E008958091E8008E778093E800EECFDD
:1050200020917E022115B1F12530B1F12091E800E7
:1050300023FD2EC02091E80022FDE6CF2091E8005C
:1050400020FFDECF3091F3002091F200009719F09D
:105050002830310558F041E02830310509F040E0B2
:105060002091E8002E772093E800CACF4491409326
:10507000F100319601972F5F3F4FE8CF80917E027C
:10508000811541F0853041F08091E80083FFBCCF6D
:1050900081E0089582E0089583E00895982F973085
:1050A00028F08F708093E90081E008959093E900E3
:1050B000242F762F50E0981731F07091EC0020915A
:1050C000ED005091F00021FD02C09F5FE8CF3091CC
:1050D000EB003E7F3093EB003091ED003D7F30934D
:1050E000ED003091EB0031603093EB007093EC00F9
:1050F0002093ED005093F0002091EE0027FDE5CFC6
:1051000080E0089580917F0287FF13C08091E800BE
:1051100082FF06C08091E8008B778093E8000895B5
:1051200080917E028111F2CF089580917E028115D7
:10513000D9F38091E80080FFF8CF8091E8008E7766
:10514000ECCF2091E4003091E50095E6A901209193
:10515000EC00822F817020FF06C08091E80080FF64
:1051600006C080E008952091E80022FD1AC08091D9
:105170007E02811589F0853089F08091EB0085FDF4
:105180000FC02091E4003091E50042175307F9F277
:105190009A95E1F684E0089582E0089583E0089509
:1051A00081E008950E9441290E944929E0EEF0E043
:1051B000808181608083E8EDF0E080818F7780835B
:1051C00019BCA7EDB0E08C918E7F8C9380818F7E8F
:1051D000808310927D0208950F931F93CF93DF93E6
:1051E0000E9441290E944929C8EDD0E088818F772B
:1051F000888388818068888388818F7D888319BCB3
:1052000010927E0210927A0210927C0210927B021F
:1052100000EE10E0F80180818B7F808388818160BF
:10522000888342E060E080E00E944E28E1EEF0E0FA
:1052300080818E7F8083E2EEF0E0808181608083D8
:10524000808188608083F80180818E7F808388815F
:1052500080618883DF91CF911F910F910895E8EDD0
:10526000F0E080818F7E8083E7EDF0E080818160D7
:10527000808384E082BF81E080937D020E94EC28DD
:105280000895E8EDF0E080818E7F80831092E20047
:1052900008951092DA001092E10008951F920F9283
:1052A0000FB60F9211242F933F934F935F936F93F9
:1052B0007F938F939F93AF93BF93EF93FF938091CF
:1052C000E10082FF0BC08091E20082FF07C0809165
:1052D000E1008B7F8093E1000E94B42B8091DA0083
:1052E00080FF19C08091D80080FF15C08091DA003E
:1052F0008E7F8093DA008091D90080FF94C080E196
:1053000089BD82E189BD09B400FEFDCF81E08093B3
:105310007E020E943C258091E10080FF19C08091AF
:10532000E20080FF15C08091E2008E7F8093E20052
:105330008091E20080618093E2008091D8008062D9
:105340008093D80019BC85E080937E020E9450258E
:105350008091E10084FF29C08091E20084FF25C094
:1053600080E189BD82E189BD09B400FEFDCF809155
:10537000D8008F7D8093D8008091E1008F7E80934C
:10538000E1008091E2008F7E8093E2008091E20054
:1053900081608093E20080917A02811509F449C00E
:1053A00084E080937E020E9459258091E10083FF72
:1053B00029C08091E20083FF25C08091E100877FB2
:1053C0008093E10082E080937E0210927A028091C5
:1053D000E1008E7F8093E1008091E2008E7F8093D8
:1053E000E2008091E20080618093E20042E060E0B0
:1053F00080E00E944E288091F00088608093F00049
:105400000E944D25FF91EF91BF91AF919F918F9198
:105410007F916F915F914F913F912F910F900FBEB0
:105420000F901F90189519BC10927E020E944A2579
:1054300072CF8091E30087FF02C083E0B2CF81E0AA
:10544000B0CF1F920F920FB60F921124EF92FF92DE
:105450000F931F932F933F934F935F936F937F937C
:105460008F939F93AF93BF93CF93EF93FF9309EEE7
:1054700010E0F8018081C091EC008F70C795CC27B7
:10548000C795C82B108280EFE82EF12CF7018081A0
:10549000877F808378940E946C2AF8011082F7013C
:1054A000808188608083CF70F801C083FF91EF9185
:1054B000CF91BF91AF919F918F917F916F915F91AC
:1054C0004F913F912F911F910F91FF90EF900F906F
:1054D0000FBE0F901F901895AAE2B0E0E2E7FAE243
:1054E0000C94742C8FE792E0FC0101962091F1005E
:1054F000208322E087389207B9F70E9483258091A4
:10550000E80083FF38C080917F02909180029A303A
:1055100090F5E92FF0E0EA5AF24D0C94382C8038DF
:1055200089F0823841F5809183028F70873018F5B9
:105530008093E9008091EB0085FB882780F9109229
:10554000E90006C080917C02880F90917B02892B34
:105550009091E800977F9093E8008093F10010927B
:10556000F1008091E8008E7723C0811116C08091F0
:105570008102813011F18091E80083FF0AC080919F
:10558000E800877F8093E8008091EB008062809341
:10559000EB00AA96E4E00C94902C823061F78091A5
:1055A0008102811589F01092E9008091E800877FDF
:1055B0008093E8000E948228DECF81E0933009F0DA
:1055C00080E080937C02EFCF809183028F702FEF79
:1055D000280F263080F68093E9002091EB0020FF11
:1055E000E2CF933031F48091EB0080628093EB0046
:1055F000DACF9091EB0090619093EB0021E030E0E6
:10560000A90102C0440F551F8A95E2F74093EA00B2
:105610001092EA008091EB008860E8CF8111ABCF57
:10562000109181021F778091E3008078812B809315
:10563000E3008091E800877F8093E8000E94822841
:105640008091E80080FFFCCF8091E3008068809328
:10565000E30083E0111101C082E080937E028BCFD2
:105660008058823008F087CF809181029091820229
:105670008C3D53E0950799F583E08A838AE289831C
:105680004FB7F894DE01139620E03EE051E2E32F9D
:10569000F0E050935700849120FF03C082958F70F3
:1056A0003F5F8F708A30C8F0895C90E08D939D9346
:1056B0002F5F243161F74FBF8091E800877F80938F
:1056C000E8006AE270E0CE0101960E94992780917D
:1056D000E8008B778093E8004ECF805DE6CF609145
:1056E000830270918402AE014F5F5F4F0E94842657
:1056F0008C01892B09F43FCF8091E800877F80934C
:10570000E800B80189819A810E94F327E0CF8038B0
:1057100009F031CF8091E800877F8093E800809185
:105720007A028093F1001DCF811125CF90918102E3
:10573000923008F020CF8091E800877F8093E800C6
:1057400090937A020E94822880917A02811531F02A
:1057500084E080937E020E9464250DCF8091E30057
:1057600087FDF6CF81E0F5CF0895CF9380917E023B
:10577000811599F08091E900C091EC008F70C79578
:10578000CC27C795C82B1092E9008091E80083FDD3
:105790000E946C2ACF70C093E900CF910895AA1B94
:1057A000BB1B51E107C0AA1FBB1FA617B70710F00C
:1057B000A61BB70B881F991F5A95A9F7809590953E
:1057C000BC01CD01089597FB072E16F4009407D075
:1057D00077FD09D00E94CF2B07FC05D03EF49095B1
:1057E00081959F4F0895709561957F4F0895A1E22F
:1057F0001A2EAA1BBB1BFD010DC0AA1FBB1FEE1F4B
:10580000FF1FA217B307E407F50720F0A21BB30B95
:10581000E40BF50B661F771F881F991F1A9469F711
:1058200060957095809590959B01AC01BD01CF016D
:105830000895052E97FB1EF400940E94302C57FD0E
:1058400007D00E94F72B07FC03D04EF40C94302CA9
:1058500050954095309521953F4F4F4F5F4F08959C
:1058600090958095709561957F4F8F4F9F4F0895CC
:10587000EE0FFF1F0590F491E02D099469279627FC
:1058800069277827872778270895A29FB001B39FBB
:10589000C001A39F700D811D1124911DB29F700D39
:1058A000811D1124911D08950E94452CB7FF089574
:1058B000821B930B08950E94452CA59F900DB49FC9
:1058C000900DA49F800D911D112408952F923F9259
:1058D0004F925F926F927F928F929F92AF92BF9200
:1058E000CF92DF92EF92FF920F931F93CF93DF93AC
:1058F000CDB7DEB7CA1BDB0B0FB6F894DEBF0FBE09
:10590000CDBF09942A88398848885F846E847D8455
:105910008C849B84AA84B984C884DF80EE80FD8057
:105920000C811B81AA81B981CE0FD11D0FB6F894CD
:10593000DEBF0FBECDBFED010895FB01DC0104C049
:105940008D910190801921F441505040C8F7881B77
:10595000990B0895FB01DC0102C001900D924150AA
:105960005040D8F70895F999FECF92BD81BDF89ABD
:10597000992780B50895A8E1B0E042E050E00C948A
:10598000F72CDC01A40FB51F4150504048F0CB016B
:10599000840F951F2E910E94D22C41505040D0F779
:1059A0000895262FF999FECF92BD81BDF89A0197EF
:1059B00000B4021639F01FBA20BD0FB6F894FA9A57
:1059C000F99A0FBE08950396272F0E94D22C0E94A9
:1059D000D12C252F0E94D22C242F0C94D22C01964E
:1059E000272F0E94D22C0C94D12CDC01CB01FC017E
:1059F000F999FECF06C0F2BDE1BDF89A319600B428
:105A00000D9241505040B8F70895F894FFCF161A00
:105A1000871A1E1AE819EC19221AF019261A321AD6
:105A2000FC19801A001A361A041A3A1A5F1A081A50
:105A30003E1A661A0E1A441A4C1AF4192A1AF81940
:105A40002E1A121A481A561A6F1A7E1AE2191A1AC0
:105A50008E1A401B461B491B4F1B641B641B641B97
:105A6000641B641B641B641B641B521B571B5B1B66
:105A7000611B721B781B7C1BC41ECA1EB31EBE1E7C
:105A8000D01ED61EDC1EBD1FCC1F002012201D20E4
:105A900028202B202B202B20D41FD41F3020342053
:105AA0003C204920562059205C2069208F2AB52AA5
:105AB000BB2AB52ABB2A0E2B302BBB2A872B942B53
:105AC000DE01FE01000421108E2312000000000000
:105AD0000000000101280850400410030201B7240F
